{
  "_format": "hh-sol-artifact-1",
  "contractName": "WaitingList",
  "sourceName": "contracts/WaitingList.sol",
  "abi": [
    {
      "inputs": [
        {
          "internalType": "address",
          "name": "patient",
          "type": "address"
        }
      ],
      "name": "addPatient",
      "outputs": [],
      "stateMutability": "nonpayable",
      "type": "function"
    },
    {
      "inputs": [],
      "name": "getPatients",
      "outputs": [
        {
          "internalType": "address[]",
          "name": "",
          "type": "address[]"
        }
      ],
      "stateMutability": "view",
      "type": "function"
    },
    {
      "inputs": [
        {
          "internalType": "uint256",
          "name": "",
          "type": "uint256"
        }
      ],
      "name": "patients",
      "outputs": [
        {
          "internalType": "address",
          "name": "",
          "type": "address"
        }
      ],
      "stateMutability": "view",
      "type": "function"
    },
    {
      "inputs": [],
      "name": "selectRandomPatient",
      "outputs": [
        {
          "internalType": "address",
          "name": "",
          "type": "address"
        }
      ],
      "stateMutability": "view",
      "type": "function"
    }
  ],
  "bytecode": "0x608060405234801561001057600080fd5b50610652806100206000396000f3fe608060405234801561001057600080fd5b506004361061004c5760003560e01c80630ee291eb1461005157806312ad1c371461006f5780636d263ceb1461008d57806393119a83146100a9575b600080fd5b6100596100d9565b6040516100669190610318565b60405180910390f35b6100776101a4565b60405161008491906103f1565b60405180910390f35b6100a760048036038101906100a29190610444565b610232565b005b6100c360048036038101906100be91906104a7565b610298565b6040516100d09190610318565b60405180910390f35b60008060008054905011610122576040517f08c379a000000000000000000000000000000000000000000000000000000000815260040161011990610531565b60405180910390fd5b600080805490504260405160200161013a9190610572565b6040516020818303038152906040528051906020012060001c61015d91906105bc565b905060008181548110610173576101726105ed565b5b9060005260206000200160009054906101000a900473ffffffffffffffffffffffffffffffffffffffff1691505090565b6060600080548060200260200160405190810160405280929190818152602001828054801561022857602002820191906000526020600020905b8160009054906101000a900473ffffffffffffffffffffffffffffffffffffffff1673ffffffffffffffffffffffffffffffffffffffff16815260200190600101908083116101de575b5050505050905090565b6000819080600181540180825580915050600190039060005260206000200160009091909190916101000a81548173ffffffffffffffffffffffffffffffffffffffff021916908373ffffffffffffffffffffffffffffffffffffffff16021790555050565b600081815481106102a857600080fd5b906000526020600020016000915054906101000a900473ffffffffffffffffffffffffffffffffffffffff1681565b600073ffffffffffffffffffffffffffffffffffffffff82169050919050565b6000610302826102d7565b9050919050565b610312816102f7565b82525050565b600060208201905061032d6000830184610309565b92915050565b600081519050919050565b600082825260208201905092915050565b6000819050602082019050919050565b610368816102f7565b82525050565b600061037a838361035f565b60208301905092915050565b6000602082019050919050565b600061039e82610333565b6103a8818561033e565b93506103b38361034f565b8060005b838110156103e45781516103cb888261036e565b97506103d683610386565b9250506001810190506103b7565b5085935050505092915050565b6000602082019050818103600083015261040b8184610393565b905092915050565b600080fd5b610421816102f7565b811461042c57600080fd5b50565b60008135905061043e81610418565b92915050565b60006020828403121561045a57610459610413565b5b60006104688482850161042f565b91505092915050565b6000819050919050565b61048481610471565b811461048f57600080fd5b50565b6000813590506104a18161047b565b92915050565b6000602082840312156104bd576104bc610413565b5b60006104cb84828501610492565b91505092915050565b600082825260208201905092915050565b7f4e6f2070617469656e747320696e2077616974696e67206c6973740000000000600082015250565b600061051b601b836104d4565b9150610526826104e5565b602082019050919050565b6000602082019050818103600083015261054a8161050e565b9050919050565b6000819050919050565b61056c61056782610471565b610551565b82525050565b600061057e828461055b565b60208201915081905092915050565b7f4e487b7100000000000000000000000000000000000000000000000000000000600052601260045260246000fd5b60006105c782610471565b91506105d283610471565b9250826105e2576105e161058d565b5b828206905092915050565b7f4e487b7100000000000000000000000000000000000000000000000000000000600052603260045260246000fdfea26469706673582212201d34fac46055fd61df3b2feaba5f4324484d6ad00d112688d612d1a36c13cff464736f6c63430008110033",
  "linkReferences": {},
  "deployedLinkReferences": {}
}