{
  "_format": "hh-sol-artifact-1",
  "contractName": "PatientRegistry",
  "sourceName": "contracts/PatientRegistry.sol",
  "abi": [
    {
      "inputs": [
        {
          "internalType": "address",
          "name": "_doctor",
          "type": "address"
        }
      ],
      "stateMutability": "nonpayable",
      "type": "constructor"
    },
    {
      "inputs": [
        {
          "internalType": "address",
          "name": "patientAddress",
          "type": "address"
        },
        {
          "internalType": "string",
          "name": "info",
          "type": "string"
        }
      ],
      "name": "addPatient",
      "outputs": [],
      "stateMutability": "nonpayable",
      "type": "function"
    },
    {
      "inputs": [],
      "name": "doctor",
      "outputs": [
        {
          "internalType": "address",
          "name": "",
          "type": "address"
        }
      ],
      "stateMutability": "view",
      "type": "function"
    },
    {
      "inputs": [],
      "name": "getPatientList",
      "outputs": [
        {
          "internalType": "address[]",
          "name": "",
          "type": "address[]"
        }
      ],
      "stateMutability": "view",
      "type": "function"
    },
    {
      "inputs": [
        {
          "internalType": "uint256",
          "name": "",
          "type": "uint256"
        }
      ],
      "name": "patientList",
      "outputs": [
        {
          "internalType": "address",
          "name": "",
          "type": "address"
        }
      ],
      "stateMutability": "view",
      "type": "function"
    },
    {
      "inputs": [
        {
          "internalType": "address",
          "name": "",
          "type": "address"
        }
      ],
      "name": "patients",
      "outputs": [
        {
          "internalType": "address",
          "name": "patientAddress",
          "type": "address"
        },
        {
          "internalType": "string",
          "name": "patientInfo",
          "type": "string"
        }
      ],
      "stateMutability": "view",
      "type": "function"
    }
  ],
  "bytecode": "0x608060405234801561001057600080fd5b50604051610ec2380380610ec2833981810160405281019061003291906100db565b806000806101000a81548173ffffffffffffffffffffffffffffffffffffffff021916908373ffffffffffffffffffffffffffffffffffffffff16021790555050610108565b600080fd5b600073ffffffffffffffffffffffffffffffffffffffff82169050919050565b60006100a88261007d565b9050919050565b6100b88161009d565b81146100c357600080fd5b50565b6000815190506100d5816100af565b92915050565b6000602082840312156100f1576100f0610078565b5b60006100ff848285016100c6565b91505092915050565b610dab806101176000396000f3fe608060405234801561001057600080fd5b50600436106100575760003560e01c80630869cfbc1461005c578063503b13541461008d5780637ea7118c146100ab578063babb1d41146100c9578063db66c060146100f9575b600080fd5b610076600480360381019061007191906105d4565b610115565b6040516100849291906106a0565b60405180910390f35b6100956101e1565b6040516100a2919061078e565b60405180910390f35b6100b361026f565b6040516100c091906107b0565b60405180910390f35b6100e360048036038101906100de9190610801565b610293565b6040516100f091906107b0565b60405180910390f35b610113600480360381019061010e9190610963565b6102d2565b005b60016020528060005260406000206000915090508060000160009054906101000a900473ffffffffffffffffffffffffffffffffffffffff169080600101805461015e906109ee565b80601f016020809104026020016040519081016040528092919081815260200182805461018a906109ee565b80156101d75780601f106101ac576101008083540402835291602001916101d7565b820191906000526020600020905b8154815290600101906020018083116101ba57829003601f168201915b5050505050905082565b6060600280548060200260200160405190810160405280929190818152602001828054801561026557602002820191906000526020600020905b8160009054906101000a900473ffffffffffffffffffffffffffffffffffffffff1673ffffffffffffffffffffffffffffffffffffffff168152602001906001019080831161021b575b5050505050905090565b60008054906101000a900473ffffffffffffffffffffffffffffffffffffffff1681565b600281815481106102a357600080fd5b906000526020600020016000915054906101000a900473ffffffffffffffffffffffffffffffffffffffff1681565b60008054906101000a900473ffffffffffffffffffffffffffffffffffffffff1673ffffffffffffffffffffffffffffffffffffffff163373ffffffffffffffffffffffffffffffffffffffff1614610360576040517f08c379a000000000000000000000000000000000000000000000000000000000815260040161035790610a6b565b60405180910390fd5b600073ffffffffffffffffffffffffffffffffffffffff16600160008473ffffffffffffffffffffffffffffffffffffffff1673ffffffffffffffffffffffffffffffffffffffff16815260200190815260200160002060000160009054906101000a900473ffffffffffffffffffffffffffffffffffffffff1673ffffffffffffffffffffffffffffffffffffffff1614610431576040517f08c379a000000000000000000000000000000000000000000000000000000000815260040161042890610ad7565b60405180910390fd5b60405180604001604052808373ffffffffffffffffffffffffffffffffffffffff16815260200182815250600160008473ffffffffffffffffffffffffffffffffffffffff1673ffffffffffffffffffffffffffffffffffffffff16815260200190815260200160002060008201518160000160006101000a81548173ffffffffffffffffffffffffffffffffffffffff021916908373ffffffffffffffffffffffffffffffffffffffff16021790555060208201518160010190816104f79190610ca3565b509050506002829080600181540180825580915050600190039060005260206000200160009091909190916101000a81548173ffffffffffffffffffffffffffffffffffffffff021916908373ffffffffffffffffffffffffffffffffffffffff1602179055505050565b6000604051905090565b600080fd5b600080fd5b600073ffffffffffffffffffffffffffffffffffffffff82169050919050565b60006105a182610576565b9050919050565b6105b181610596565b81146105bc57600080fd5b50565b6000813590506105ce816105a8565b92915050565b6000602082840312156105ea576105e961056c565b5b60006105f8848285016105bf565b91505092915050565b61060a81610596565b82525050565b600081519050919050565b600082825260208201905092915050565b60005b8381101561064a57808201518184015260208101905061062f565b60008484015250505050565b6000601f19601f8301169050919050565b600061067282610610565b61067c818561061b565b935061068c81856020860161062c565b61069581610656565b840191505092915050565b60006040820190506106b56000830185610601565b81810360208301526106c78184610667565b90509392505050565b600081519050919050565b600082825260208201905092915050565b6000819050602082019050919050565b61070581610596565b82525050565b600061071783836106fc565b60208301905092915050565b6000602082019050919050565b600061073b826106d0565b61074581856106db565b9350610750836106ec565b8060005b83811015610781578151610768888261070b565b975061077383610723565b925050600181019050610754565b5085935050505092915050565b600060208201905081810360008301526107a88184610730565b905092915050565b60006020820190506107c56000830184610601565b92915050565b6000819050919050565b6107de816107cb565b81146107e957600080fd5b50565b6000813590506107fb816107d5565b92915050565b6000602082840312156108175761081661056c565b5b6000610825848285016107ec565b91505092915050565b600080fd5b600080fd5b7f4e487b7100000000000000000000000000000000000000000000000000000000600052604160045260246000fd5b61087082610656565b810181811067ffffffffffffffff8211171561088f5761088e610838565b5b80604052505050565b60006108a2610562565b90506108ae8282610867565b919050565b600067ffffffffffffffff8211156108ce576108cd610838565b5b6108d782610656565b9050602081019050919050565b82818337600083830152505050565b6000610906610901846108b3565b610898565b90508281526020810184848401111561092257610921610833565b5b61092d8482856108e4565b509392505050565b600082601f83011261094a5761094961082e565b5b813561095a8482602086016108f3565b91505092915050565b6000806040838503121561097a5761097961056c565b5b6000610988858286016105bf565b925050602083013567ffffffffffffffff8111156109a9576109a8610571565b5b6109b585828601610935565b9150509250929050565b7f4e487b7100000000000000000000000000000000000000000000000000000000600052602260045260246000fd5b60006002820490506001821680610a0657607f821691505b602082108103610a1957610a186109bf565b5b50919050565b7f4f6e6c792074686520646f63746f722063616e206164642070617469656e7473600082015250565b6000610a5560208361061b565b9150610a6082610a1f565b602082019050919050565b60006020820190508181036000830152610a8481610a48565b9050919050565b7f50617469656e7420616c72656164792065786973747300000000000000000000600082015250565b6000610ac160168361061b565b9150610acc82610a8b565b602082019050919050565b60006020820190508181036000830152610af081610ab4565b9050919050565b60008190508160005260206000209050919050565b60006020601f8301049050919050565b600082821b905092915050565b600060088302610b597fffffffffffffffffffffffffffffffffffffffffffffffffffffffffffffffff82610b1c565b610b638683610b1c565b95508019841693508086168417925050509392505050565b6000819050919050565b6000610ba0610b9b610b96846107cb565b610b7b565b6107cb565b9050919050565b6000819050919050565b610bba83610b85565b610bce610bc682610ba7565b848454610b29565b825550505050565b600090565b610be3610bd6565b610bee818484610bb1565b505050565b5b81811015610c1257610c07600082610bdb565b600181019050610bf4565b5050565b601f821115610c5757610c2881610af7565b610c3184610b0c565b81016020851015610c40578190505b610c54610c4c85610b0c565b830182610bf3565b50505b505050565b600082821c905092915050565b6000610c7a60001984600802610c5c565b1980831691505092915050565b6000610c938383610c69565b9150826002028217905092915050565b610cac82610610565b67ffffffffffffffff811115610cc557610cc4610838565b5b610ccf82546109ee565b610cda828285610c16565b600060209050601f831160018114610d0d5760008415610cfb578287015190505b610d058582610c87565b865550610d6d565b601f198416610d1b86610af7565b60005b82811015610d4357848901518255600182019150602085019450602081019050610d1e565b86831015610d605784890151610d5c601f891682610c69565b8355505b6001600288020188555050505b50505050505056fea2646970667358221220860a7996a9ed726cde650bbc8b6495f8e2909e66e6d6f80566f6fe4cfbcce56c64736f6c63430008110033",
  "linkReferences": {},
  "deployedLinkReferences": {}
}