{
  "_format": "hh-sol-artifact-1",
  "contractName": "PatientRegistry",
  "sourceName": "contracts/PatientRegistry.sol",
  "abi": [
    {
      "inputs": [
        {
          "internalType": "address",
          "name": "_doctor",
          "type": "address"
        }
      ],
      "stateMutability": "nonpayable",
      "type": "constructor"
    },
    {
      "inputs": [
        {
          "internalType": "address",
          "name": "patientAddress",
          "type": "address"
        },
        {
          "internalType": "string",
          "name": "info",
          "type": "string"
        },
        {
          "internalType": "uint256",
          "name": "bloodType",
          "type": "uint256"
        },
        {
          "internalType": "uint256",
          "name": "diseaseSeverity",
          "type": "uint256"
        },
        {
          "internalType": "uint256",
          "name": "surgicalRisk",
          "type": "uint256"
        }
      ],
      "name": "addPatient",
      "outputs": [],
      "stateMutability": "nonpayable",
      "type": "function"
    },
    {
      "inputs": [],
      "name": "doctor",
      "outputs": [
        {
          "internalType": "address",
          "name": "",
          "type": "address"
        }
      ],
      "stateMutability": "view",
      "type": "function"
    },
    {
      "inputs": [],
      "name": "getPatientList",
      "outputs": [
        {
          "internalType": "address[]",
          "name": "",
          "type": "address[]"
        }
      ],
      "stateMutability": "view",
      "type": "function"
    },
    {
      "inputs": [
        {
          "internalType": "uint256",
          "name": "",
          "type": "uint256"
        }
      ],
      "name": "patientList",
      "outputs": [
        {
          "internalType": "address",
          "name": "",
          "type": "address"
        }
      ],
      "stateMutability": "view",
      "type": "function"
    },
    {
      "inputs": [
        {
          "internalType": "address",
          "name": "",
          "type": "address"
        }
      ],
      "name": "patients",
      "outputs": [
        {
          "internalType": "address",
          "name": "patientAddress",
          "type": "address"
        },
        {
          "internalType": "string",
          "name": "patientInfo",
          "type": "string"
        },
        {
          "internalType": "uint256",
          "name": "bloodType",
          "type": "uint256"
        },
        {
          "internalType": "uint256",
          "name": "diseaseSeverity",
          "type": "uint256"
        },
        {
          "internalType": "uint256",
          "name": "surgicalRisk",
          "type": "uint256"
        }
      ],
      "stateMutability": "view",
      "type": "function"
    }
  ],
  "bytecode": "0x608060405234801561001057600080fd5b5060405162000f8138038062000f81833981810160405281019061003491906100dd565b806000806101000a81548173ffffffffffffffffffffffffffffffffffffffff021916908373ffffffffffffffffffffffffffffffffffffffff1602179055505061010a565b600080fd5b600073ffffffffffffffffffffffffffffffffffffffff82169050919050565b60006100aa8261007f565b9050919050565b6100ba8161009f565b81146100c557600080fd5b50565b6000815190506100d7816100b1565b92915050565b6000602082840312156100f3576100f261007a565b5b6000610101848285016100c8565b91505092915050565b610e67806200011a6000396000f3fe608060405234801561001057600080fd5b50600436106100575760003560e01c80630869cfbc1461005c57806314e5324d14610090578063503b1354146100ac5780637ea7118c146100ca578063babb1d41146100e8575b600080fd5b6100766004803603810190610071919061061c565b610118565b604051610087959493929190610701565b60405180910390f35b6100aa60048036038101906100a591906108bc565b6101f6565b005b6100b46104b9565b6040516100c19190610a11565b60405180910390f35b6100d2610547565b6040516100df9190610a33565b60405180910390f35b61010260048036038101906100fd9190610a4e565b61056b565b60405161010f9190610a33565b60405180910390f35b60016020528060005260406000206000915090508060000160009054906101000a900473ffffffffffffffffffffffffffffffffffffffff169080600101805461016190610aaa565b80601f016020809104026020016040519081016040528092919081815260200182805461018d90610aaa565b80156101da5780601f106101af576101008083540402835291602001916101da565b820191906000526020600020905b8154815290600101906020018083116101bd57829003601f168201915b5050505050908060020154908060030154908060040154905085565b60008054906101000a900473ffffffffffffffffffffffffffffffffffffffff1673ffffffffffffffffffffffffffffffffffffffff163373ffffffffffffffffffffffffffffffffffffffff1614610284576040517f08c379a000000000000000000000000000000000000000000000000000000000815260040161027b90610b27565b60405180910390fd5b600073ffffffffffffffffffffffffffffffffffffffff16600160008773ffffffffffffffffffffffffffffffffffffffff1673ffffffffffffffffffffffffffffffffffffffff16815260200190815260200160002060000160009054906101000a900473ffffffffffffffffffffffffffffffffffffffff1673ffffffffffffffffffffffffffffffffffffffff1614610355576040517f08c379a000000000000000000000000000000000000000000000000000000000815260040161034c90610b93565b60405180910390fd5b6040518060a001604052808673ffffffffffffffffffffffffffffffffffffffff16815260200185815260200184815260200183815260200182815250600160008773ffffffffffffffffffffffffffffffffffffffff1673ffffffffffffffffffffffffffffffffffffffff16815260200190815260200160002060008201518160000160006101000a81548173ffffffffffffffffffffffffffffffffffffffff021916908373ffffffffffffffffffffffffffffffffffffffff160217905550602082015181600101908161042d9190610d5f565b506040820151816002015560608201518160030155608082015181600401559050506002859080600181540180825580915050600190039060005260206000200160009091909190916101000a81548173ffffffffffffffffffffffffffffffffffffffff021916908373ffffffffffffffffffffffffffffffffffffffff1602179055505050505050565b6060600280548060200260200160405190810160405280929190818152602001828054801561053d57602002820191906000526020600020905b8160009054906101000a900473ffffffffffffffffffffffffffffffffffffffff1673ffffffffffffffffffffffffffffffffffffffff16815260200190600101908083116104f3575b5050505050905090565b60008054906101000a900473ffffffffffffffffffffffffffffffffffffffff1681565b6002818154811061057b57600080fd5b906000526020600020016000915054906101000a900473ffffffffffffffffffffffffffffffffffffffff1681565b6000604051905090565b600080fd5b600080fd5b600073ffffffffffffffffffffffffffffffffffffffff82169050919050565b60006105e9826105be565b9050919050565b6105f9816105de565b811461060457600080fd5b50565b600081359050610616816105f0565b92915050565b600060208284031215610632576106316105b4565b5b600061064084828501610607565b91505092915050565b610652816105de565b82525050565b600081519050919050565b600082825260208201905092915050565b60005b83811015610692578082015181840152602081019050610677565b60008484015250505050565b6000601f19601f8301169050919050565b60006106ba82610658565b6106c48185610663565b93506106d4818560208601610674565b6106dd8161069e565b840191505092915050565b6000819050919050565b6106fb816106e8565b82525050565b600060a0820190506107166000830188610649565b818103602083015261072881876106af565b905061073760408301866106f2565b61074460608301856106f2565b61075160808301846106f2565b9695505050505050565b600080fd5b600080fd5b7f4e487b7100000000000000000000000000000000000000000000000000000000600052604160045260246000fd5b61079d8261069e565b810181811067ffffffffffffffff821117156107bc576107bb610765565b5b80604052505050565b60006107cf6105aa565b90506107db8282610794565b919050565b600067ffffffffffffffff8211156107fb576107fa610765565b5b6108048261069e565b9050602081019050919050565b82818337600083830152505050565b600061083361082e846107e0565b6107c5565b90508281526020810184848401111561084f5761084e610760565b5b61085a848285610811565b509392505050565b600082601f8301126108775761087661075b565b5b8135610887848260208601610820565b91505092915050565b610899816106e8565b81146108a457600080fd5b50565b6000813590506108b681610890565b92915050565b600080600080600060a086880312156108d8576108d76105b4565b5b60006108e688828901610607565b955050602086013567ffffffffffffffff811115610907576109066105b9565b5b61091388828901610862565b9450506040610924888289016108a7565b9350506060610935888289016108a7565b9250506080610946888289016108a7565b9150509295509295909350565b600081519050919050565b600082825260208201905092915050565b6000819050602082019050919050565b610988816105de565b82525050565b600061099a838361097f565b60208301905092915050565b6000602082019050919050565b60006109be82610953565b6109c8818561095e565b93506109d38361096f565b8060005b83811015610a045781516109eb888261098e565b97506109f6836109a6565b9250506001810190506109d7565b5085935050505092915050565b60006020820190508181036000830152610a2b81846109b3565b905092915050565b6000602082019050610a486000830184610649565b92915050565b600060208284031215610a6457610a636105b4565b5b6000610a72848285016108a7565b91505092915050565b7f4e487b7100000000000000000000000000000000000000000000000000000000600052602260045260246000fd5b60006002820490506001821680610ac257607f821691505b602082108103610ad557610ad4610a7b565b5b50919050565b7f4f6e6c792074686520646f63746f722063616e206164642070617469656e7473600082015250565b6000610b11602083610663565b9150610b1c82610adb565b602082019050919050565b60006020820190508181036000830152610b4081610b04565b9050919050565b7f50617469656e7420616c72656164792065786973747300000000000000000000600082015250565b6000610b7d601683610663565b9150610b8882610b47565b602082019050919050565b60006020820190508181036000830152610bac81610b70565b9050919050565b60008190508160005260206000209050919050565b60006020601f8301049050919050565b600082821b905092915050565b600060088302610c157fffffffffffffffffffffffffffffffffffffffffffffffffffffffffffffffff82610bd8565b610c1f8683610bd8565b95508019841693508086168417925050509392505050565b6000819050919050565b6000610c5c610c57610c52846106e8565b610c37565b6106e8565b9050919050565b6000819050919050565b610c7683610c41565b610c8a610c8282610c63565b848454610be5565b825550505050565b600090565b610c9f610c92565b610caa818484610c6d565b505050565b5b81811015610cce57610cc3600082610c97565b600181019050610cb0565b5050565b601f821115610d1357610ce481610bb3565b610ced84610bc8565b81016020851015610cfc578190505b610d10610d0885610bc8565b830182610caf565b50505b505050565b600082821c905092915050565b6000610d3660001984600802610d18565b1980831691505092915050565b6000610d4f8383610d25565b9150826002028217905092915050565b610d6882610658565b67ffffffffffffffff811115610d8157610d80610765565b5b610d8b8254610aaa565b610d96828285610cd2565b600060209050601f831160018114610dc95760008415610db7578287015190505b610dc18582610d43565b865550610e29565b601f198416610dd786610bb3565b60005b82811015610dff57848901518255600182019150602085019450602081019050610dda565b86831015610e1c5784890151610e18601f891682610d25565b8355505b6001600288020188555050505b50505050505056fea2646970667358221220c293b1530839fa774b2b2f9d2e8681f6fce2c7be831da3c5dca00ba71407d8f864736f6c63430008110033",
  "linkReferences": {},
  "deployedLinkReferences": {}
}