{
  "_format": "hh-sol-artifact-1",
  "contractName": "PatientRegistry",
  "sourceName": "contracts/PatientRegistry.sol",
  "abi": [
    {
      "inputs": [
        {
          "internalType": "address",
          "name": "_doctor",
          "type": "address"
        }
      ],
      "stateMutability": "nonpayable",
      "type": "constructor"
    },
    {
      "inputs": [
        {
          "internalType": "address",
          "name": "patientAddress",
          "type": "address"
        },
        {
          "internalType": "string",
          "name": "info",
          "type": "string"
        }
      ],
      "name": "addPatient",
      "outputs": [],
      "stateMutability": "nonpayable",
      "type": "function"
    },
    {
      "inputs": [],
      "name": "doctor",
      "outputs": [
        {
          "internalType": "address",
          "name": "",
          "type": "address"
        }
      ],
      "stateMutability": "view",
      "type": "function"
    },
    {
      "inputs": [],
      "name": "getPatientList",
      "outputs": [
        {
          "internalType": "address[]",
          "name": "",
          "type": "address[]"
        }
      ],
      "stateMutability": "view",
      "type": "function"
    },
    {
      "inputs": [
        {
          "internalType": "uint256",
          "name": "",
          "type": "uint256"
        }
      ],
      "name": "patientList",
      "outputs": [
        {
          "internalType": "address",
          "name": "",
          "type": "address"
        }
      ],
      "stateMutability": "view",
      "type": "function"
    },
    {
      "inputs": [
        {
          "internalType": "address",
          "name": "",
          "type": "address"
        }
      ],
      "name": "patients",
      "outputs": [
        {
          "internalType": "address",
          "name": "patientAddress",
          "type": "address"
        },
        {
          "internalType": "string",
          "name": "patientInfo",
          "type": "string"
        }
      ],
      "stateMutability": "view",
      "type": "function"
    }
  ],
  "bytecode": "0x608060405234801561001057600080fd5b50604051610d85380380610d85833981810160405281019061003291906100db565b806000806101000a81548173ffffffffffffffffffffffffffffffffffffffff021916908373ffffffffffffffffffffffffffffffffffffffff16021790555050610108565b600080fd5b600073ffffffffffffffffffffffffffffffffffffffff82169050919050565b60006100a88261007d565b9050919050565b6100b88161009d565b81146100c357600080fd5b50565b6000815190506100d5816100af565b92915050565b6000602082840312156100f1576100f0610078565b5b60006100ff848285016100c6565b91505092915050565b610c6e806101176000396000f3fe608060405234801561001057600080fd5b50600436106100575760003560e01c80630869cfbc1461005c578063503b13541461008d5780637ea7118c146100ab578063babb1d41146100c9578063db66c060146100f9575b600080fd5b61007660048036038101906100719190610503565b610115565b6040516100849291906105cf565b60405180910390f35b6100956101e1565b6040516100a291906106bd565b60405180910390f35b6100b361026f565b6040516100c091906106df565b60405180910390f35b6100e360048036038101906100de9190610730565b610293565b6040516100f091906106df565b60405180910390f35b610113600480360381019061010e9190610892565b6102d2565b005b60016020528060005260406000206000915090508060000160009054906101000a900473ffffffffffffffffffffffffffffffffffffffff169080600101805461015e9061091d565b80601f016020809104026020016040519081016040528092919081815260200182805461018a9061091d565b80156101d75780601f106101ac576101008083540402835291602001916101d7565b820191906000526020600020905b8154815290600101906020018083116101ba57829003601f168201915b5050505050905082565b6060600280548060200260200160405190810160405280929190818152602001828054801561026557602002820191906000526020600020905b8160009054906101000a900473ffffffffffffffffffffffffffffffffffffffff1673ffffffffffffffffffffffffffffffffffffffff168152602001906001019080831161021b575b5050505050905090565b60008054906101000a900473ffffffffffffffffffffffffffffffffffffffff1681565b600281815481106102a357600080fd5b906000526020600020016000915054906101000a900473ffffffffffffffffffffffffffffffffffffffff1681565b60008054906101000a900473ffffffffffffffffffffffffffffffffffffffff1673ffffffffffffffffffffffffffffffffffffffff163373ffffffffffffffffffffffffffffffffffffffff1614610360576040517f08c379a00000000000000000000000000000000000000000000000000000000081526004016103579061099a565b60405180910390fd5b60405180604001604052808373ffffffffffffffffffffffffffffffffffffffff16815260200182815250600160008473ffffffffffffffffffffffffffffffffffffffff1673ffffffffffffffffffffffffffffffffffffffff16815260200190815260200160002060008201518160000160006101000a81548173ffffffffffffffffffffffffffffffffffffffff021916908373ffffffffffffffffffffffffffffffffffffffff16021790555060208201518160010190816104269190610b66565b509050506002829080600181540180825580915050600190039060005260206000200160009091909190916101000a81548173ffffffffffffffffffffffffffffffffffffffff021916908373ffffffffffffffffffffffffffffffffffffffff1602179055505050565b6000604051905090565b600080fd5b600080fd5b600073ffffffffffffffffffffffffffffffffffffffff82169050919050565b60006104d0826104a5565b9050919050565b6104e0816104c5565b81146104eb57600080fd5b50565b6000813590506104fd816104d7565b92915050565b6000602082840312156105195761051861049b565b5b6000610527848285016104ee565b91505092915050565b610539816104c5565b82525050565b600081519050919050565b600082825260208201905092915050565b60005b8381101561057957808201518184015260208101905061055e565b60008484015250505050565b6000601f19601f8301169050919050565b60006105a18261053f565b6105ab818561054a565b93506105bb81856020860161055b565b6105c481610585565b840191505092915050565b60006040820190506105e46000830185610530565b81810360208301526105f68184610596565b90509392505050565b600081519050919050565b600082825260208201905092915050565b6000819050602082019050919050565b610634816104c5565b82525050565b6000610646838361062b565b60208301905092915050565b6000602082019050919050565b600061066a826105ff565b610674818561060a565b935061067f8361061b565b8060005b838110156106b0578151610697888261063a565b97506106a283610652565b925050600181019050610683565b5085935050505092915050565b600060208201905081810360008301526106d7818461065f565b905092915050565b60006020820190506106f46000830184610530565b92915050565b6000819050919050565b61070d816106fa565b811461071857600080fd5b50565b60008135905061072a81610704565b92915050565b6000602082840312156107465761074561049b565b5b60006107548482850161071b565b91505092915050565b600080fd5b600080fd5b7f4e487b7100000000000000000000000000000000000000000000000000000000600052604160045260246000fd5b61079f82610585565b810181811067ffffffffffffffff821117156107be576107bd610767565b5b80604052505050565b60006107d1610491565b90506107dd8282610796565b919050565b600067ffffffffffffffff8211156107fd576107fc610767565b5b61080682610585565b9050602081019050919050565b82818337600083830152505050565b6000610835610830846107e2565b6107c7565b90508281526020810184848401111561085157610850610762565b5b61085c848285610813565b509392505050565b600082601f8301126108795761087861075d565b5b8135610889848260208601610822565b91505092915050565b600080604083850312156108a9576108a861049b565b5b60006108b7858286016104ee565b925050602083013567ffffffffffffffff8111156108d8576108d76104a0565b5b6108e485828601610864565b9150509250929050565b7f4e487b7100000000000000000000000000000000000000000000000000000000600052602260045260246000fd5b6000600282049050600182168061093557607f821691505b602082108103610948576109476108ee565b5b50919050565b7f4f6e6c792074686520646f63746f722063616e206164642070617469656e7473600082015250565b600061098460208361054a565b915061098f8261094e565b602082019050919050565b600060208201905081810360008301526109b381610977565b9050919050565b60008190508160005260206000209050919050565b60006020601f8301049050919050565b600082821b905092915050565b600060088302610a1c7fffffffffffffffffffffffffffffffffffffffffffffffffffffffffffffffff826109df565b610a2686836109df565b95508019841693508086168417925050509392505050565b6000819050919050565b6000610a63610a5e610a59846106fa565b610a3e565b6106fa565b9050919050565b6000819050919050565b610a7d83610a48565b610a91610a8982610a6a565b8484546109ec565b825550505050565b600090565b610aa6610a99565b610ab1818484610a74565b505050565b5b81811015610ad557610aca600082610a9e565b600181019050610ab7565b5050565b601f821115610b1a57610aeb816109ba565b610af4846109cf565b81016020851015610b03578190505b610b17610b0f856109cf565b830182610ab6565b50505b505050565b600082821c905092915050565b6000610b3d60001984600802610b1f565b1980831691505092915050565b6000610b568383610b2c565b9150826002028217905092915050565b610b6f8261053f565b67ffffffffffffffff811115610b8857610b87610767565b5b610b92825461091d565b610b9d828285610ad9565b600060209050601f831160018114610bd05760008415610bbe578287015190505b610bc88582610b4a565b865550610c30565b601f198416610bde866109ba565b60005b82811015610c0657848901518255600182019150602085019450602081019050610be1565b86831015610c235784890151610c1f601f891682610b2c565b8355505b6001600288020188555050505b50505050505056fea2646970667358221220b9403fc413df1bc0771944935528c3e274082630b8fee6a26ea376d5ec8f47ee64736f6c63430008110033",
  "linkReferences": {},
  "deployedLinkReferences": {}
}