{
  "_format": "hh-sol-artifact-1",
  "contractName": "OrganEscrow",
  "sourceName": "contracts/OrganEscrow.sol",
  "abi": [
    {
      "inputs": [
        {
          "internalType": "address",
          "name": "_donor",
          "type": "address"
        },
        {
          "internalType": "uint256",
          "name": "_organNFT",
          "type": "uint256"
        },
        {
          "internalType": "address",
          "name": "_organNFTContract",
          "type": "address"
        },
        {
          "internalType": "address",
          "name": "_doctor",
          "type": "address"
        }
      ],
      "stateMutability": "nonpayable",
      "type": "constructor"
    },
    {
      "inputs": [],
      "name": "approveTransplant",
      "outputs": [],
      "stateMutability": "nonpayable",
      "type": "function"
    },
    {
      "inputs": [],
      "name": "doctor",
      "outputs": [
        {
          "internalType": "address",
          "name": "",
          "type": "address"
        }
      ],
      "stateMutability": "view",
      "type": "function"
    },
    {
      "inputs": [],
      "name": "doctorApproved",
      "outputs": [
        {
          "internalType": "bool",
          "name": "",
          "type": "bool"
        }
      ],
      "stateMutability": "view",
      "type": "function"
    },
    {
      "inputs": [],
      "name": "donor",
      "outputs": [
        {
          "internalType": "address",
          "name": "",
          "type": "address"
        }
      ],
      "stateMutability": "view",
      "type": "function"
    },
    {
      "inputs": [],
      "name": "getOrganID",
      "outputs": [
        {
          "internalType": "uint256",
          "name": "",
          "type": "uint256"
        }
      ],
      "stateMutability": "view",
      "type": "function"
    },
    {
      "inputs": [],
      "name": "getOwners",
      "outputs": [
        {
          "internalType": "address",
          "name": "currentOwner",
          "type": "address"
        },
        {
          "internalType": "address",
          "name": "futureOwner",
          "type": "address"
        }
      ],
      "stateMutability": "view",
      "type": "function"
    },
    {
      "inputs": [],
      "name": "organNFT",
      "outputs": [
        {
          "internalType": "uint256",
          "name": "",
          "type": "uint256"
        }
      ],
      "stateMutability": "view",
      "type": "function"
    },
    {
      "inputs": [],
      "name": "organNFTContract",
      "outputs": [
        {
          "internalType": "contract OrganNFT",
          "name": "",
          "type": "address"
        }
      ],
      "stateMutability": "view",
      "type": "function"
    },
    {
      "inputs": [],
      "name": "patient",
      "outputs": [
        {
          "internalType": "address",
          "name": "",
          "type": "address"
        }
      ],
      "stateMutability": "view",
      "type": "function"
    },
    {
      "inputs": [
        {
          "internalType": "address",
          "name": "_patient",
          "type": "address"
        }
      ],
      "name": "setPatient",
      "outputs": [],
      "stateMutability": "nonpayable",
      "type": "function"
    },
    {
      "inputs": [],
      "name": "transferOrgan",
      "outputs": [],
      "stateMutability": "nonpayable",
      "type": "function"
    }
  ],
  "bytecode": "0x60806040523480156200001157600080fd5b5060405162000dd438038062000dd48339818101604052810190620000379190620001ca565b836000806101000a81548173ffffffffffffffffffffffffffffffffffffffff021916908373ffffffffffffffffffffffffffffffffffffffff1602179055508260038190555081600460016101000a81548173ffffffffffffffffffffffffffffffffffffffff021916908373ffffffffffffffffffffffffffffffffffffffff16021790555080600260006101000a81548173ffffffffffffffffffffffffffffffffffffffff021916908373ffffffffffffffffffffffffffffffffffffffff1602179055506000600460006101000a81548160ff021916908315150217905550505050506200023c565b600080fd5b600073ffffffffffffffffffffffffffffffffffffffff82169050919050565b600062000157826200012a565b9050919050565b62000169816200014a565b81146200017557600080fd5b50565b60008151905062000189816200015e565b92915050565b6000819050919050565b620001a4816200018f565b8114620001b057600080fd5b50565b600081519050620001c48162000199565b92915050565b60008060008060808587031215620001e757620001e662000125565b5b6000620001f78782880162000178565b94505060206200020a87828801620001b3565b93505060406200021d8782880162000178565b9250506060620002308782880162000178565b91505092959194509250565b610b88806200024c6000396000f3fe608060405234801561001057600080fd5b50600436106100a95760003560e01c80639312116911610071578063931211691461014257806399d20f4014610160578063a0e67e2b1461016a578063b4e30b4014610189578063bd96bd20146101a7578063c9ce2f36146101c5576100a9565b806325223bd4146100ae5780634aeb0ee6146100cc57806350eeed4f146100ea5780635e3ca6cd146101065780637ea7118c14610124575b600080fd5b6100b66101cf565b6040516100c39190610746565b60405180910390f35b6100d46101f3565b6040516100e191906107c0565b60405180910390f35b61010460048036038101906100ff919061080c565b610219565b005b61010e61025d565b60405161011b9190610852565b60405180910390f35b61012c610267565b6040516101399190610746565b60405180910390f35b61014a61028d565b6040516101579190610888565b60405180910390f35b6101686102a0565b005b61017261034d565b6040516101809291906108a3565b60405180910390f35b610191610419565b60405161019e9190610852565b60405180910390f35b6101af61041f565b6040516101bc9190610746565b60405180910390f35b6101cd610445565b005b60008054906101000a900473ffffffffffffffffffffffffffffffffffffffff1681565b600460019054906101000a900473ffffffffffffffffffffffffffffffffffffffff1681565b80600160006101000a81548173ffffffffffffffffffffffffffffffffffffffff021916908373ffffffffffffffffffffffffffffffffffffffff16021790555050565b6000600354905090565b600260009054906101000a900473ffffffffffffffffffffffffffffffffffffffff1681565b600460009054906101000a900460ff1681565b600260009054906101000a900473ffffffffffffffffffffffffffffffffffffffff1673ffffffffffffffffffffffffffffffffffffffff163373ffffffffffffffffffffffffffffffffffffffff1614610330576040517f08c379a00000000000000000000000000000000000000000000000000000000081526004016103279061094f565b60405180910390fd5b6001600460006101000a81548160ff021916908315150217905550565b600080600460019054906101000a900473ffffffffffffffffffffffffffffffffffffffff1673ffffffffffffffffffffffffffffffffffffffff16636352211e6003546040518263ffffffff1660e01b81526004016103ad9190610852565b602060405180830381865afa1580156103ca573d6000803e3d6000fd5b505050506040513d601f19601f820116820180604052508101906103ee9190610984565b9150600160009054906101000a900473ffffffffffffffffffffffffffffffffffffffff1690509091565b60035481565b600160009054906101000a900473ffffffffffffffffffffffffffffffffffffffff1681565b600460009054906101000a900460ff16610494576040517f08c379a000000000000000000000000000000000000000000000000000000000815260040161048b90610a23565b60405180910390fd5b60008054906101000a900473ffffffffffffffffffffffffffffffffffffffff1673ffffffffffffffffffffffffffffffffffffffff163373ffffffffffffffffffffffffffffffffffffffff1614610522576040517f08c379a000000000000000000000000000000000000000000000000000000000815260040161051990610a8f565b60405180910390fd5b600073ffffffffffffffffffffffffffffffffffffffff16600460019054906101000a900473ffffffffffffffffffffffffffffffffffffffff1673ffffffffffffffffffffffffffffffffffffffff16636352211e6003546040518263ffffffff1660e01b81526004016105979190610852565b602060405180830381865afa1580156105b4573d6000803e3d6000fd5b505050506040513d601f19601f820116820180604052508101906105d89190610984565b73ffffffffffffffffffffffffffffffffffffffff160361062e576040517f08c379a000000000000000000000000000000000000000000000000000000000815260040161062590610afb565b60405180910390fd5b600460019054906101000a900473ffffffffffffffffffffffffffffffffffffffff1673ffffffffffffffffffffffffffffffffffffffff166342842e0e60008054906101000a900473ffffffffffffffffffffffffffffffffffffffff16600160009054906101000a900473ffffffffffffffffffffffffffffffffffffffff166003546040518463ffffffff1660e01b81526004016106d193929190610b1b565b600060405180830381600087803b1580156106eb57600080fd5b505af11580156106ff573d6000803e3d6000fd5b50505050565b600073ffffffffffffffffffffffffffffffffffffffff82169050919050565b600061073082610705565b9050919050565b61074081610725565b82525050565b600060208201905061075b6000830184610737565b92915050565b6000819050919050565b600061078661078161077c84610705565b610761565b610705565b9050919050565b60006107988261076b565b9050919050565b60006107aa8261078d565b9050919050565b6107ba8161079f565b82525050565b60006020820190506107d560008301846107b1565b92915050565b600080fd5b6107e981610725565b81146107f457600080fd5b50565b600081359050610806816107e0565b92915050565b600060208284031215610822576108216107db565b5b6000610830848285016107f7565b91505092915050565b6000819050919050565b61084c81610839565b82525050565b60006020820190506108676000830184610843565b92915050565b60008115159050919050565b6108828161086d565b82525050565b600060208201905061089d6000830184610879565b92915050565b60006040820190506108b86000830185610737565b6108c56020830184610737565b9392505050565b600082825260208201905092915050565b7f4f6e6c7920646f63746f722063616e20617070726f766520746865207472616e60008201527f73706c616e740000000000000000000000000000000000000000000000000000602082015250565b60006109396026836108cc565b9150610944826108dd565b604082019050919050565b600060208201905081810360008301526109688161092c565b9050919050565b60008151905061097e816107e0565b92915050565b60006020828403121561099a576109996107db565b5b60006109a88482850161096f565b91505092915050565b7f446f63746f72206d75737420617070726f766520746865207472616e73706c6160008201527f6e74206669727374000000000000000000000000000000000000000000000000602082015250565b6000610a0d6028836108cc565b9150610a18826109b1565b604082019050919050565b60006020820190508181036000830152610a3c81610a00565b9050919050565b7f4f6e6c7920646f6e6f722063616e207472616e73666572206f7267616e000000600082015250565b6000610a79601d836108cc565b9150610a8482610a43565b602082019050919050565b60006020820190508181036000830152610aa881610a6c565b9050919050565b7f4e465420646f6573206e6f742065786973740000000000000000000000000000600082015250565b6000610ae56012836108cc565b9150610af082610aaf565b602082019050919050565b60006020820190508181036000830152610b1481610ad8565b9050919050565b6000606082019050610b306000830186610737565b610b3d6020830185610737565b610b4a6040830184610843565b94935050505056fea2646970667358221220d19ff3be92a766586f3952fdc5e2e805c072133201b92d3d306eb7a3b45549c564736f6c63430008110033",
  "linkReferences": {},
  "deployedLinkReferences": {}
}