{
  "_format": "hh-sol-artifact-1",
  "contractName": "OrganEscrow",
  "sourceName": "contracts/OrganEscrow.sol",
  "abi": [
    {
      "inputs": [
        {
          "internalType": "address",
          "name": "_donor",
          "type": "address"
        },
        {
          "internalType": "uint256",
          "name": "_organNFT",
          "type": "uint256"
        },
        {
          "internalType": "address",
          "name": "_organNFTContract",
          "type": "address"
        },
        {
          "internalType": "address",
          "name": "_doctor",
          "type": "address"
        }
      ],
      "stateMutability": "nonpayable",
      "type": "constructor"
    },
    {
      "inputs": [],
      "name": "approveTransplant",
      "outputs": [],
      "stateMutability": "nonpayable",
      "type": "function"
    },
    {
      "inputs": [],
      "name": "doctor",
      "outputs": [
        {
          "internalType": "address",
          "name": "",
          "type": "address"
        }
      ],
      "stateMutability": "view",
      "type": "function"
    },
    {
      "inputs": [],
      "name": "doctorApproved",
      "outputs": [
        {
          "internalType": "bool",
          "name": "",
          "type": "bool"
        }
      ],
      "stateMutability": "view",
      "type": "function"
    },
    {
      "inputs": [],
      "name": "donor",
      "outputs": [
        {
          "internalType": "address",
          "name": "",
          "type": "address"
        }
      ],
      "stateMutability": "view",
      "type": "function"
    },
    {
      "inputs": [],
      "name": "getOrganID",
      "outputs": [
        {
          "internalType": "uint256",
          "name": "",
          "type": "uint256"
        }
      ],
      "stateMutability": "view",
      "type": "function"
    },
    {
      "inputs": [],
      "name": "getOwners",
      "outputs": [
        {
          "internalType": "address",
          "name": "currentOwner",
          "type": "address"
        },
        {
          "internalType": "address",
          "name": "futureOwner",
          "type": "address"
        }
      ],
      "stateMutability": "view",
      "type": "function"
    },
    {
      "inputs": [],
      "name": "organNFT",
      "outputs": [
        {
          "internalType": "uint256",
          "name": "",
          "type": "uint256"
        }
      ],
      "stateMutability": "view",
      "type": "function"
    },
    {
      "inputs": [],
      "name": "organNFTContract",
      "outputs": [
        {
          "internalType": "contract OrganNFT",
          "name": "",
          "type": "address"
        }
      ],
      "stateMutability": "view",
      "type": "function"
    },
    {
      "inputs": [],
      "name": "patient",
      "outputs": [
        {
          "internalType": "address",
          "name": "",
          "type": "address"
        }
      ],
      "stateMutability": "view",
      "type": "function"
    },
    {
      "inputs": [
        {
          "internalType": "address",
          "name": "_patient",
          "type": "address"
        }
      ],
      "name": "setPatient",
      "outputs": [],
      "stateMutability": "nonpayable",
      "type": "function"
    },
    {
      "inputs": [],
      "name": "transferOrgan",
      "outputs": [],
      "stateMutability": "nonpayable",
      "type": "function"
    }
  ],
  "bytecode": "0x60806040523480156200001157600080fd5b5060405162000ece38038062000ece8339818101604052810190620000379190620001ca565b836000806101000a81548173ffffffffffffffffffffffffffffffffffffffff021916908373ffffffffffffffffffffffffffffffffffffffff1602179055508260038190555081600460016101000a81548173ffffffffffffffffffffffffffffffffffffffff021916908373ffffffffffffffffffffffffffffffffffffffff16021790555080600260006101000a81548173ffffffffffffffffffffffffffffffffffffffff021916908373ffffffffffffffffffffffffffffffffffffffff1602179055506000600460006101000a81548160ff021916908315150217905550505050506200023c565b600080fd5b600073ffffffffffffffffffffffffffffffffffffffff82169050919050565b600062000157826200012a565b9050919050565b62000169816200014a565b81146200017557600080fd5b50565b60008151905062000189816200015e565b92915050565b6000819050919050565b620001a4816200018f565b8114620001b057600080fd5b50565b600081519050620001c48162000199565b92915050565b60008060008060808587031215620001e757620001e662000125565b5b6000620001f78782880162000178565b94505060206200020a87828801620001b3565b93505060406200021d8782880162000178565b9250506060620002308782880162000178565b91505092959194509250565b610c82806200024c6000396000f3fe608060405234801561001057600080fd5b50600436106100a95760003560e01c80639312116911610071578063931211691461014257806399d20f4014610160578063a0e67e2b1461016a578063b4e30b4014610189578063bd96bd20146101a7578063c9ce2f36146101c5576100a9565b806325223bd4146100ae5780634aeb0ee6146100cc57806350eeed4f146100ea5780635e3ca6cd146101065780637ea7118c14610124575b600080fd5b6100b66101cf565b6040516100c391906107d4565b60405180910390f35b6100d46101f3565b6040516100e1919061084e565b60405180910390f35b61010460048036038101906100ff919061089a565b610219565b005b61010e6102eb565b60405161011b91906108e0565b60405180910390f35b61012c6102f5565b60405161013991906107d4565b60405180910390f35b61014a61031b565b6040516101579190610916565b60405180910390f35b61016861032e565b005b6101726103db565b604051610180929190610931565b60405180910390f35b6101916104a7565b60405161019e91906108e0565b60405180910390f35b6101af6104ad565b6040516101bc91906107d4565b60405180910390f35b6101cd6104d3565b005b60008054906101000a900473ffffffffffffffffffffffffffffffffffffffff1681565b600460019054906101000a900473ffffffffffffffffffffffffffffffffffffffff1681565b60008054906101000a900473ffffffffffffffffffffffffffffffffffffffff1673ffffffffffffffffffffffffffffffffffffffff163373ffffffffffffffffffffffffffffffffffffffff16146102a7576040517f08c379a000000000000000000000000000000000000000000000000000000000815260040161029e906109b7565b60405180910390fd5b80600160006101000a81548173ffffffffffffffffffffffffffffffffffffffff021916908373ffffffffffffffffffffffffffffffffffffffff16021790555050565b6000600354905090565b600260009054906101000a900473ffffffffffffffffffffffffffffffffffffffff1681565b600460009054906101000a900460ff1681565b600260009054906101000a900473ffffffffffffffffffffffffffffffffffffffff1673ffffffffffffffffffffffffffffffffffffffff163373ffffffffffffffffffffffffffffffffffffffff16146103be576040517f08c379a00000000000000000000000000000000000000000000000000000000081526004016103b590610a49565b60405180910390fd5b6001600460006101000a81548160ff021916908315150217905550565b600080600460019054906101000a900473ffffffffffffffffffffffffffffffffffffffff1673ffffffffffffffffffffffffffffffffffffffff16636352211e6003546040518263ffffffff1660e01b815260040161043b91906108e0565b602060405180830381865afa158015610458573d6000803e3d6000fd5b505050506040513d601f19601f8201168201806040525081019061047c9190610a7e565b9150600160009054906101000a900473ffffffffffffffffffffffffffffffffffffffff1690509091565b60035481565b600160009054906101000a900473ffffffffffffffffffffffffffffffffffffffff1681565b600460009054906101000a900460ff16610522576040517f08c379a000000000000000000000000000000000000000000000000000000000815260040161051990610b1d565b60405180910390fd5b60008054906101000a900473ffffffffffffffffffffffffffffffffffffffff1673ffffffffffffffffffffffffffffffffffffffff163373ffffffffffffffffffffffffffffffffffffffff16146105b0576040517f08c379a00000000000000000000000000000000000000000000000000000000081526004016105a790610b89565b60405180910390fd5b600073ffffffffffffffffffffffffffffffffffffffff16600460019054906101000a900473ffffffffffffffffffffffffffffffffffffffff1673ffffffffffffffffffffffffffffffffffffffff16636352211e6003546040518263ffffffff1660e01b815260040161062591906108e0565b602060405180830381865afa158015610642573d6000803e3d6000fd5b505050506040513d601f19601f820116820180604052508101906106669190610a7e565b73ffffffffffffffffffffffffffffffffffffffff16036106bc576040517f08c379a00000000000000000000000000000000000000000000000000000000081526004016106b390610bf5565b60405180910390fd5b600460019054906101000a900473ffffffffffffffffffffffffffffffffffffffff1673ffffffffffffffffffffffffffffffffffffffff166342842e0e60008054906101000a900473ffffffffffffffffffffffffffffffffffffffff16600160009054906101000a900473ffffffffffffffffffffffffffffffffffffffff166003546040518463ffffffff1660e01b815260040161075f93929190610c15565b600060405180830381600087803b15801561077957600080fd5b505af115801561078d573d6000803e3d6000fd5b50505050565b600073ffffffffffffffffffffffffffffffffffffffff82169050919050565b60006107be82610793565b9050919050565b6107ce816107b3565b82525050565b60006020820190506107e960008301846107c5565b92915050565b6000819050919050565b600061081461080f61080a84610793565b6107ef565b610793565b9050919050565b6000610826826107f9565b9050919050565b60006108388261081b565b9050919050565b6108488161082d565b82525050565b6000602082019050610863600083018461083f565b92915050565b600080fd5b610877816107b3565b811461088257600080fd5b50565b6000813590506108948161086e565b92915050565b6000602082840312156108b0576108af610869565b5b60006108be84828501610885565b91505092915050565b6000819050919050565b6108da816108c7565b82525050565b60006020820190506108f560008301846108d1565b92915050565b60008115159050919050565b610910816108fb565b82525050565b600060208201905061092b6000830184610907565b92915050565b600060408201905061094660008301856107c5565b61095360208301846107c5565b9392505050565b600082825260208201905092915050565b7f4f6e6c7920646f6e6f722063616e20736574207468652070617469656e740000600082015250565b60006109a1601e8361095a565b91506109ac8261096b565b602082019050919050565b600060208201905081810360008301526109d081610994565b9050919050565b7f4f6e6c7920646f63746f722063616e20617070726f766520746865207472616e60008201527f73706c616e740000000000000000000000000000000000000000000000000000602082015250565b6000610a3360268361095a565b9150610a3e826109d7565b604082019050919050565b60006020820190508181036000830152610a6281610a26565b9050919050565b600081519050610a788161086e565b92915050565b600060208284031215610a9457610a93610869565b5b6000610aa284828501610a69565b91505092915050565b7f446f63746f72206d75737420617070726f766520746865207472616e73706c6160008201527f6e74206669727374000000000000000000000000000000000000000000000000602082015250565b6000610b0760288361095a565b9150610b1282610aab565b604082019050919050565b60006020820190508181036000830152610b3681610afa565b9050919050565b7f4f6e6c7920646f6e6f722063616e207472616e73666572206f7267616e000000600082015250565b6000610b73601d8361095a565b9150610b7e82610b3d565b602082019050919050565b60006020820190508181036000830152610ba281610b66565b9050919050565b7f4e465420646f6573206e6f742065786973740000000000000000000000000000600082015250565b6000610bdf60128361095a565b9150610bea82610ba9565b602082019050919050565b60006020820190508181036000830152610c0e81610bd2565b9050919050565b6000606082019050610c2a60008301866107c5565b610c3760208301856107c5565b610c4460408301846108d1565b94935050505056fea2646970667358221220528ddb696fdcbde59b33ffba9986d6df21f4591317cec9b04bcc82fd46fff2a064736f6c63430008110033",
  "linkReferences": {},
  "deployedLinkReferences": {}
}