{
  "_format": "hh-sol-artifact-1",
  "contractName": "OrganEscrow",
  "sourceName": "contracts/OrganEscrow.sol",
  "abi": [
    {
      "inputs": [
        {
          "internalType": "address",
          "name": "_donor",
          "type": "address"
        },
        {
          "internalType": "uint256",
          "name": "_organNFT",
          "type": "uint256"
        },
        {
          "internalType": "address",
          "name": "_organNFTContract",
          "type": "address"
        },
        {
          "internalType": "address",
          "name": "_doctor",
          "type": "address"
        }
      ],
      "stateMutability": "nonpayable",
      "type": "constructor"
    },
    {
      "inputs": [],
      "name": "approveTransplant",
      "outputs": [],
      "stateMutability": "nonpayable",
      "type": "function"
    },
    {
      "inputs": [],
      "name": "doctor",
      "outputs": [
        {
          "internalType": "address",
          "name": "",
          "type": "address"
        }
      ],
      "stateMutability": "view",
      "type": "function"
    },
    {
      "inputs": [],
      "name": "doctorApproved",
      "outputs": [
        {
          "internalType": "bool",
          "name": "",
          "type": "bool"
        }
      ],
      "stateMutability": "view",
      "type": "function"
    },
    {
      "inputs": [],
      "name": "donor",
      "outputs": [
        {
          "internalType": "address",
          "name": "",
          "type": "address"
        }
      ],
      "stateMutability": "view",
      "type": "function"
    },
    {
      "inputs": [],
      "name": "getOrganID",
      "outputs": [
        {
          "internalType": "uint256",
          "name": "",
          "type": "uint256"
        }
      ],
      "stateMutability": "view",
      "type": "function"
    },
    {
      "inputs": [],
      "name": "getOwners",
      "outputs": [
        {
          "internalType": "address",
          "name": "currentOwner",
          "type": "address"
        },
        {
          "internalType": "address",
          "name": "futureOwner",
          "type": "address"
        }
      ],
      "stateMutability": "view",
      "type": "function"
    },
    {
      "inputs": [],
      "name": "isPatientSet",
      "outputs": [
        {
          "internalType": "bool",
          "name": "",
          "type": "bool"
        }
      ],
      "stateMutability": "view",
      "type": "function"
    },
    {
      "inputs": [],
      "name": "organNFT",
      "outputs": [
        {
          "internalType": "uint256",
          "name": "",
          "type": "uint256"
        }
      ],
      "stateMutability": "view",
      "type": "function"
    },
    {
      "inputs": [],
      "name": "organNFTContract",
      "outputs": [
        {
          "internalType": "contract OrganNFT",
          "name": "",
          "type": "address"
        }
      ],
      "stateMutability": "view",
      "type": "function"
    },
    {
      "inputs": [],
      "name": "patient",
      "outputs": [
        {
          "internalType": "address",
          "name": "",
          "type": "address"
        }
      ],
      "stateMutability": "view",
      "type": "function"
    },
    {
      "inputs": [
        {
          "internalType": "address",
          "name": "_patient",
          "type": "address"
        }
      ],
      "name": "setPatient",
      "outputs": [],
      "stateMutability": "nonpayable",
      "type": "function"
    },
    {
      "inputs": [],
      "name": "transferOrgan",
      "outputs": [],
      "stateMutability": "nonpayable",
      "type": "function"
    }
  ],
  "bytecode": "0x60806040523480156200001157600080fd5b5060405162000e5638038062000e568339818101604052810190620000379190620001ca565b836000806101000a81548173ffffffffffffffffffffffffffffffffffffffff021916908373ffffffffffffffffffffffffffffffffffffffff1602179055508260038190555081600460016101000a81548173ffffffffffffffffffffffffffffffffffffffff021916908373ffffffffffffffffffffffffffffffffffffffff16021790555080600260006101000a81548173ffffffffffffffffffffffffffffffffffffffff021916908373ffffffffffffffffffffffffffffffffffffffff1602179055506000600460006101000a81548160ff021916908315150217905550505050506200023c565b600080fd5b600073ffffffffffffffffffffffffffffffffffffffff82169050919050565b600062000157826200012a565b9050919050565b62000169816200014a565b81146200017557600080fd5b50565b60008151905062000189816200015e565b92915050565b6000819050919050565b620001a4816200018f565b8114620001b057600080fd5b50565b600081519050620001c48162000199565b92915050565b60008060008060808587031215620001e757620001e662000125565b5b6000620001f78782880162000178565b94505060206200020a87828801620001b3565b93505060406200021d8782880162000178565b9250506060620002308782880162000178565b91505092959194509250565b610c0a806200024c6000396000f3fe608060405234801561001057600080fd5b50600436106100b45760003560e01c806399d20f401161007157806399d20f401461016b578063a0e67e2b14610175578063b4e30b4014610194578063bd96bd20146101b2578063c9ce2f36146101d0578063efad20b0146101da576100b4565b806325223bd4146100b95780634aeb0ee6146100d757806350eeed4f146100f55780635e3ca6cd146101115780637ea7118c1461012f578063931211691461014d575b600080fd5b6100c16101f8565b6040516100ce91906107c8565b60405180910390f35b6100df61021c565b6040516100ec9190610842565b60405180910390f35b61010f600480360381019061010a919061088e565b610242565b005b610119610286565b60405161012691906108d4565b60405180910390f35b610137610290565b60405161014491906107c8565b60405180910390f35b6101556102b6565b604051610162919061090a565b60405180910390f35b6101736102c9565b005b61017d610376565b60405161018b929190610925565b60405180910390f35b61019c610442565b6040516101a991906108d4565b60405180910390f35b6101ba610448565b6040516101c791906107c8565b60405180910390f35b6101d861046e565b005b6101e261072e565b6040516101ef919061090a565b60405180910390f35b60008054906101000a900473ffffffffffffffffffffffffffffffffffffffff1681565b600460019054906101000a900473ffffffffffffffffffffffffffffffffffffffff1681565b80600160006101000a81548173ffffffffffffffffffffffffffffffffffffffff021916908373ffffffffffffffffffffffffffffffffffffffff16021790555050565b6000600354905090565b600260009054906101000a900473ffffffffffffffffffffffffffffffffffffffff1681565b600460009054906101000a900460ff1681565b600260009054906101000a900473ffffffffffffffffffffffffffffffffffffffff1673ffffffffffffffffffffffffffffffffffffffff163373ffffffffffffffffffffffffffffffffffffffff1614610359576040517f08c379a0000000000000000000000000000000000000000000000000000000008152600401610350906109d1565b60405180910390fd5b6001600460006101000a81548160ff021916908315150217905550565b600080600460019054906101000a900473ffffffffffffffffffffffffffffffffffffffff1673ffffffffffffffffffffffffffffffffffffffff16636352211e6003546040518263ffffffff1660e01b81526004016103d691906108d4565b602060405180830381865afa1580156103f3573d6000803e3d6000fd5b505050506040513d601f19601f820116820180604052508101906104179190610a06565b9150600160009054906101000a900473ffffffffffffffffffffffffffffffffffffffff1690509091565b60035481565b600160009054906101000a900473ffffffffffffffffffffffffffffffffffffffff1681565b600460009054906101000a900460ff166104bd576040517f08c379a00000000000000000000000000000000000000000000000000000000081526004016104b490610aa5565b60405180910390fd5b60008054906101000a900473ffffffffffffffffffffffffffffffffffffffff1673ffffffffffffffffffffffffffffffffffffffff163373ffffffffffffffffffffffffffffffffffffffff161461054b576040517f08c379a000000000000000000000000000000000000000000000000000000000815260040161054290610b11565b60405180910390fd5b600073ffffffffffffffffffffffffffffffffffffffff16600460019054906101000a900473ffffffffffffffffffffffffffffffffffffffff1673ffffffffffffffffffffffffffffffffffffffff16636352211e6003546040518263ffffffff1660e01b81526004016105c091906108d4565b602060405180830381865afa1580156105dd573d6000803e3d6000fd5b505050506040513d601f19601f820116820180604052508101906106019190610a06565b73ffffffffffffffffffffffffffffffffffffffff1603610657576040517f08c379a000000000000000000000000000000000000000000000000000000000815260040161064e90610b7d565b60405180910390fd5b600460019054906101000a900473ffffffffffffffffffffffffffffffffffffffff1673ffffffffffffffffffffffffffffffffffffffff166342842e0e60008054906101000a900473ffffffffffffffffffffffffffffffffffffffff16600160009054906101000a900473ffffffffffffffffffffffffffffffffffffffff166003546040518463ffffffff1660e01b81526004016106fa93929190610b9d565b600060405180830381600087803b15801561071457600080fd5b505af1158015610728573d6000803e3d6000fd5b50505050565b60008073ffffffffffffffffffffffffffffffffffffffff16600160009054906101000a900473ffffffffffffffffffffffffffffffffffffffff1673ffffffffffffffffffffffffffffffffffffffff161415905090565b600073ffffffffffffffffffffffffffffffffffffffff82169050919050565b60006107b282610787565b9050919050565b6107c2816107a7565b82525050565b60006020820190506107dd60008301846107b9565b92915050565b6000819050919050565b60006108086108036107fe84610787565b6107e3565b610787565b9050919050565b600061081a826107ed565b9050919050565b600061082c8261080f565b9050919050565b61083c81610821565b82525050565b60006020820190506108576000830184610833565b92915050565b600080fd5b61086b816107a7565b811461087657600080fd5b50565b60008135905061088881610862565b92915050565b6000602082840312156108a4576108a361085d565b5b60006108b284828501610879565b91505092915050565b6000819050919050565b6108ce816108bb565b82525050565b60006020820190506108e960008301846108c5565b92915050565b60008115159050919050565b610904816108ef565b82525050565b600060208201905061091f60008301846108fb565b92915050565b600060408201905061093a60008301856107b9565b61094760208301846107b9565b9392505050565b600082825260208201905092915050565b7f4f6e6c7920646f63746f722063616e20617070726f766520746865207472616e60008201527f73706c616e740000000000000000000000000000000000000000000000000000602082015250565b60006109bb60268361094e565b91506109c68261095f565b604082019050919050565b600060208201905081810360008301526109ea816109ae565b9050919050565b600081519050610a0081610862565b92915050565b600060208284031215610a1c57610a1b61085d565b5b6000610a2a848285016109f1565b91505092915050565b7f446f63746f72206d75737420617070726f766520746865207472616e73706c6160008201527f6e74206669727374000000000000000000000000000000000000000000000000602082015250565b6000610a8f60288361094e565b9150610a9a82610a33565b604082019050919050565b60006020820190508181036000830152610abe81610a82565b9050919050565b7f4f6e6c7920646f6e6f722063616e207472616e73666572206f7267616e000000600082015250565b6000610afb601d8361094e565b9150610b0682610ac5565b602082019050919050565b60006020820190508181036000830152610b2a81610aee565b9050919050565b7f4e465420646f6573206e6f742065786973740000000000000000000000000000600082015250565b6000610b6760128361094e565b9150610b7282610b31565b602082019050919050565b60006020820190508181036000830152610b9681610b5a565b9050919050565b6000606082019050610bb260008301866107b9565b610bbf60208301856107b9565b610bcc60408301846108c5565b94935050505056fea264697066735822122018e281143ae145c3c387beb52b6b321e945e4f0f326fe3f086d4d9cd7d67282464736f6c63430008110033",
  "linkReferences": {},
  "deployedLinkReferences": {}
}